:100000000C947D0B0C94A50B0C94A50B0C94A50BD8
:100010000C94A50B0C94A50B0C94A50B0C94A50BA0
:100020000C94A50B0C94A50B0C94A50B0C94A50B90
:100030000C94A50B0C94A50B0C9499100C94A50B87
:100040000C94E6120C94A50B0C94A50B0C94A50B28
:100050000C94A50B0C94A50B0C94A50B0C94A50B60
:100060000C94A50B0C94A50B860E8C0E920E980E7C
:100070009E0EA40EAA0EB00E0000000000000000AC
:1000800000000000000091E17F9FE7F3F92047F3B3
:10009000FC00000000009123401000804030480226
:1000A000008000000000912140100080412848029B
:1000B00000000000000091217F9FE0804124480360
:1000C000FC0000000000912100900080412249F0D6
:1000D00004000000000051210090008041214810E0
:1000E00004000000000035E1009000804120C810AD
:1000F00004800000000000007F9FE080412047E373
:10010000FC000000000000000000000000000000F3
:1001100000000000000000000000000000000000DF
:10012000000000000003E0000000000000000000EC
:1001300000000000000410000000000000000000AB
:1001400000000000000B1000000000000000000094
:10015000000000000013100000000000000000007C
:1001600000000000002010000007F9027F9FE7F95F
:10017000027F0000001C08000004010240902401DE
:10018000820800000004C80000040102409024011D
:100190004208000000052800000401027F9FE7F9E3
:1001A0002208000000052B0000040102701C04015D
:1001B000120800000004A500000401024C13040111
:1001C0000A08000000044200000401024310C401B8
:1001D0000608000000020C000007F9FE409027F915
:1001E000020800000001F000000000000000000014
:1001F00000000000000040000000000000000000BF
:1002000000000000000040000000000000000000AE
:10021000000000000001C0000007F9027F9FE7F026
:100220003FCFF3FC000000000004010240902409CD
:10023000204812040000000000040102409024083D
:10024000204812040000000000040102409FE4085E
:100250002048120400000000000401FE409C040835
:100260002048120400000000000401024093040929
:100270002048120400000000000401024090C4085D
:1002800020481204000000000007F9027F9027F0C8
:100290003FCFF3FC00000000000000000000000061
:1002A000000000000000000000000000000000004E
:1002B000000000000000000000000000000000003E
:1002C000000000000000000000000000000000002E
:1002D000000000000000000000000000000000001E
:1002E000000000000000000000000000000000000E
:1002F00000000000000000000000000000000000FE
:1003000000000000000000000000000000000000ED
:1003100000000000000000000000000000000000DD
:1003200000000000000000000000000000000000CD
:1003300000000000000000000000000000000000BD
:1003400000000000000000000000000000000000AD
:10035000000000000000000000000000000000009D
:10036000000000000000000000000000000000008D
:10037000000000000000000000000000000000007D
:10038000000000000000000000000000000000006D
:10039000000000000000000000000000000000005D
:1003A000000000000000000000000000000000004D
:1003B000000000000000000000000000000000003D
:1003C000000000000000000000000000000000002D
:1003D000000000000000000000000000000000001D
:1003E000000000000000000000000000000000000D
:1003F000000000000000000007324EF40000000082
:1004000000000000067BD090084A508400000000E5
:1004100000000000094A5090084B50840000000082
:1004200000000000094A5090087AD0F40000000053
:10043000000000000F7BD070084A508400000000CC
:100440000000000009421010084A5084000000001B
:100450000000000009421010084A5084000000000B
:100460000000000009421010074A4EF7800000000B
:100470000000000009421E600000000000000000B3
:1004800000000000000091E17F9FE7F3F92047F3AF
:10049000FC00000000009123401000804030480222
:1004A0000080000000009121401000804128480297
:1004B00000000000000091217F9FE080412448035C
:1004C000FC0000000000912100900080412249F0D2
:1004D00004000000000051210090008041214810DC
:1004E00004000000000035E1009000804120C810A9
:1004F00004800000000000007F9FE080412047E36F
:10050000FC000000000000000000000000000000EF
:1005100000000000000000000000000000000000DB
:10052000000000000003E0000000000000000000E8
:1005300000000000000410000000000000000000A7
:1005400000000000000B1000000000000000000090
:100550000000000000131000000000000000000078
:1005600000000000002010000007F9027F9FE7F95B
:10057000027F0000001C08000004010240902401DA
:10058000820800000004C800000401024090240119
:100590004208000000052800000401027F9FE7F9DF
:1005A0002208000000052B0000040102701C040159
:1005B000120800000004A500000401024C1304010D
:1005C0000A08000000044200000401024310C401B4
:1005D0000608000000020C000007F9FE409027F911
:1005E000020800000001F000000000000000000010
:1005F00000000000000040000000000000000000BB
:1006000000000000000040000000000000000000AA
:10061000000000000001C0000007F9027F9FE7F022
:100620003FCFF3FC000000000004010240902409C9
:100630002048120400000000000401024090240839
:10064000204812040000000000040102409FE4085A
:100650002048120400000000000401FE409C040831
:100660002048120400000000000401024093040925
:100670002048120400000000000401024090C40859
:1006800020481204000000000007F9027F9027F0C4
:100690003FCFF3FC0000000000000000000000005D
:1006A000000000000000000000000000000000004A
:1006B000000000000000000000000000000000003A
:1006C000000000000000000000000000000000002A
:1006D000000000000000000000000000000000001A
:1006E000000000000000000000000000000000000A
:1006F00000000000000000000000000000000000FA
:1007000000000000000000000003F8FC7F3FC1FE75
:100710007F9FE2183FCFF000000401020820090289
:10072000409022383FCFF00000040102082001026F
:100730004090247830CC3000000401FE083FC10214
:100740004090241830CC30000004F9020820010247
:100750004090241830CC300000040902082009021F
:100760004090241830CC3000000409020820010217
:10077000409028183FCFF0000003F102083FC1FE6F
:100780007F9FE8183FCFF00000000000000000004D
:100790000000000000000000000000000000000059
:1007A0000000000000000000000000000000000049
:1007B0000000000000000000000000000000000039
:1007C0000000000000000000000000000000000029
:1007D0000000000000000000000000000000000019
:1007E0000000000000000000000000000000000009
:1007F000000000000000000007324EF4000000007E
:1008000000000000067BD090084A508400000000E1
:1008100000000000094A5090084B5084000000007E
:1008200000000000094A5090087AD0F4000000004F
:10083000000000000F7BD070084A508400000000C8
:100840000000000009421010084A50840000000017
:100850000000000009421010084A50840000000007
:100860000000000009421010074A4EF78000000007
:100870000000000009421E600000000000000000AF
:1008800000000000000091E17F9FE7F3F92047F3AB
:10089000FC0000000000912340100080403048021E
:1008A0000080000000009121401000804128480293
:1008B00000000000000091217F9FE0804124480358
:1008C000FC0000000000912100900080412249F0CE
:1008D00004000000000051210090008041214810D8
:1008E00004000000000035E1009000804120C810A5
:1008F00004800000000000007F9FE080412047E36B
:10090000FC000000000000000000000000000000EB
:1009100000000000000000000000000000000000D7
:10092000000000000003E0000000000000000000E4
:1009300000000000000410000000000000000000A3
:1009400000000000000B100000000000000000008C
:100950000000000000131000000000000000000074
:1009600000000000002010000007F9003F102000E8
:1009700000000000001C0800000409004090200056
:10098000000000000004C80000040900409020009E
:1009900000000000000528000007F9007F8FE0003C
:1009A0000000000000052B00000401004080200032
:1009B000000000000004A5000004010040802000A9
:1009C00000000000000442000004010040802000FC
:1009D0000000000000020C00000401FE408FC00077
:1009E000000000000001F000000000000000000016
:1009F00000000000000040000000000000000000B7
:100A000000000000000040000000000000000000A6
:100A1000000000000001C0000007F9FE7F9027F9E8
:100A2000027F9FE0000000000004010240902401CA
:100A300082401000000000000004010240902401E8
:100A400042401000000000000007F9FE7F9027F9E7
:100A500022401FE000000000000009000090240177
:100A60001240100000000000000009000090240166
:100A70000A4010000000000000000900009024015E
:100A800006401000000000000007F9FE009FE7F993
:100A9000027F9FE000000000000000000000000056
:100AA0000000000000000000000000000000000046
:100AB0000000000000000000000000000000000036
:100AC0000000000000000000000000000000000026
:100AD0000000000000000000000000000000000016
:100AE0000000000000000000000000000000000006
:100AF00000000000000000000000000000000000F6
:100B000000000000000000000007F1FE409FE0FF31
:100B10003FCFF17F9FE7F800000409026090048155
:100B200020481140902408000004090250900081E0
:100B3000204812409024080000040902489FE081E8
:100B400020481240902408000004090244900081CB
:100B500020481240902408000004090242900481B9
:100B600020481240902408000004090241900081AE
:100B700020481440902408000007F1FE409FE0FF49
:100B80003FCFF47F9FE7F800000000000000000066
:100B90000000000000000000000000000000000055
:100BA0000000000000000000000000000000000045
:100BB0000000000000000000000000000000000035
:100BC0000000000000000000000000000000000025
:100BD0000000000000000000000000000000000015
:100BE0000000000000000000000000000000000005
:100BF000000000000000000007324EF4000000007A
:100C00000000000000000000084A508400000000BE
:100C10000000000000000000084B508400000000AD
:100C20000000000000000000087AD0F4000000007E
:100C30000000000000000000084A5084000000008E
:100C40000000000000000000084A5084000000007E
:100C50000000000000000000084A5084000000006E
:100C60000000000000000000074A4EF7800000006E
:100C70000000000000000000000000000000000074
:100C800000000000000091E17F9FE7F3F92047F3A7
:100C9000FC0000000000912340100080403048021A
:100CA000008000000000912140100080412848028F
:100CB00000000000000091217F9FE0804124480354
:100CC000FC0000000000912100900080412249F0CA
:100CD00004000000000051210090008041214810D4
:100CE00004000000000035E1009000804120C810A1
:100CF00004800000000000007F9FE080412047E367
:100D0000FC000000000000000000000000000000E7
:100D100000000000000000000000000000000000D3
:100D2000000000000003E0000000000000000000E0
:100D3000000000000004100000000000000000009F
:100D400000000000000B1000000000000000000088
:100D50000000000000131000000000000000000070
:100D60000000000000201000000000000000000053
:100D700000000000001C080000000000000000004F
:100D8000000000000004C800000000000000000097
:100D90000000000000052800000000000000000026
:100DA0000000000000052B00000000000000000013
:100DB000000000000004A50000000000000000008A
:100DC00000000000000442000000000000000000DD
:100DD0000000000000020C003FC7FC8083FCFF3FC6
:100DE000C00000000001F000202404C18204812022
:100DF0004000000000004000202404A29204812052
:100E0000400000000000400020240494820481205F
:100E1000400000000001C0003FC7FC888204812020
:100E20004000000000000000202400809204812087
:100E30004000000000000000202400808204812087
:100E400040000000000000003FC4008083FCFF3F22
:100E5000C0000000000000000000000000000000D2
:100E60000000000000000000000000000000000082
:100E70000000000000000000000000000000000072
:100E80000000000000000000000000000000000062
:100E90000000000000000000000000000000000052
:100EA0000000000000000000000000000000000042
:100EB0000000000000000000000000000000000032
:100EC00000000000000000002007FCC08FF3FE407F
:100ED00041FE7F9FE0000000200400A09000204021
:100EE000410240902000000020040090900020402B
:100EF000490240902000000020040088900020401B
:100F000041024090200000002007FC8491F0207FE7
:100F1000C102409020000000200400829010204078
:100F200049024090200000002004008190102040E1
:100F300041024090200000003FE7FC808FE020400D
:100F400041FE7F9FE0000000000000000000000064
:100F50000000000000000000000000000000000091
:100F60000000000000000000000000000000000081
:100F70000000000000000000000000000000000071
:100F80000000000000000000000000000000000061
:100F90000000000000000000000000000000000051
:100FA0000000000000000000000000000000000041
:100FB0000000000000000000000000000000000031
:100FC0000000000000000000000000000000000021
:100FD0000000000000000000000000000000000011
:100FE0000000000000000000000000000000000001
:100FF000000000000000000007324EF40000000076
:1010000000000000067BD090084A508400000000D9
:1010100000000000094A5090084B50840000000076
:1010200000000000094A5090087AD0F40000000047
:10103000000000000F7BD070084A508400000000C0
:101040000000000009421010084A5084000000000F
:101050000000000009421010084A508400000000FF
:101060000000000009421010074A4EF780000000FF
:101070000000000009421E600000000000000000A7
:1010800000000000000091E17F9FE7F3F92047F3A3
:10109000FC00000000009123401000804030480216
:1010A000008000000000912140100080412848028B
:1010B00000000000000091217F9FE0804124480350
:1010C000FC0000000000912100900080412249F0C6
:1010D00004000000000051210090008041214810D0
:1010E00004000000000035E1009000804120C8109D
:1010F00004800000000000007F9FE080412047E363
:10110000FC000000000000000000000000000000E3
:1011100000000000000000000000000000000000CF
:10112000000000000003E0000000000000000000DC
:1011300000000000000410001FE7F2409FE00000E4
:1011400000000000000B10001020826190000000E1
:1011500000000000001310001020805290000000DA
:1011600000000000002010001020824C9FE00000D2
:1011700000000000001C08001020824090000000C9
:10118000000000000004C800102082409000000011
:1011900000000000000528001020824090000000A0
:1011A0000000000000052B001FE082409FE00000CF
:1011B000000000000004A500000000000000000086
:1011C00000000000000442000000000000000000D9
:1011D0000000000000020C00000000000000000001
:1011E000000000000001F0001FE3F9FE7F3FC00097
:1011F0000000000000004000102401020820000050
:10120000000000000000400010240102082000003F
:10121000000000000001C000102401FE083FC000D3
:1012200000000000000000001024790208200000E7
:101230000000000000000000102409020820000047
:101240000000000000000000102409020820000037
:1012500000000000000000001FE3F102083FC00092
:10126000000000000000000000000000000000007E
:10127000000000000000000000000000000000006E
:10128000000000000000000000000000000000005E
:1012900000000000000000001FE7F9FE7F8FE7F963
:1012A000FE7F93FC81000000102409024090040995
:1012B00000401204C10000001024090240900409FB
:1012C00000400204A10000001027F9FE409007F939
:1012D000FE7F920491000000102401C04091E701BC
:1012E000000092048900000010240130409024C1C5
:1012F00000009204850000001024010C409024316D
:1013000000009204830000001FE401027F8FC409E3
:10131000FE7F93FC81000000000000000000000040
:1013200000000000000000000000000000000000BD
:1013300000000000000000000000000000000000AD
:1013400000000000000000001FE7F9027F9FE7F1A6
:10135000FE0000000000000010240102409024095B
:101360000000000000000000102401024090240949
:10137000000000000000000010240102409FE4096A
:10138000FE00000000000000102401FE409C040844
:101390000200000000000000102401024093040835
:1013A0000200000000000000102401024090C40868
:1013B00002000000000000001FE7F9027F9027F103
:1013C000FE0000000000000000000000000000001F
:1013D000000000000000000000000000000000000D
:1013E00000000000000000000000000000000000FD
:1013F000000000000000000007324EF40000000072
:101400000000000007A5DEF0084A5084000000003C
:101410000000000004249090084B5084000000005D
:101420000000000004349090087AD0F4000000001E
:101430000000000007AC9EF0084A50840000000045
:1014400000000000042490C0084A508400000000FE
:1014500000000000042490A0084A5084000000000E
:101460000000000004249090074A4EF7800000001E
:101470000000000007A49E903FF300CFFC3FF0FF68
:10148000F300CFFF000091E13FF300CFFC3FF0FFFE
:10149000F300CFFF00009123C00300CC03300CC049
:1014A00003C0C06000009121C00300CC03300CC019
:1014B00003C0C06000009121C00300CC03300CC009
:1014C0000330C06000009121C00300CC03300CC089
:1014D0000330C06000005121C00300CFFC3FF0C0CA
:1014E000030CC060000035E1C00300CFFC3FF0FFFB
:1014F000F30CC06000000000C00300CFC03F00FF3D
:10150000F303C06000000000C00300CFC03F00C074
:101510000303C06000000000C00300CCF033C0C073
:101520000300C0600003E000C00300CCF033C0C083
:101530000300C06000041000C00300CC3C30F0C0C9
:101540000300C060000B1000C00300CC3C30F0C0B2
:101550000300C060001310003FF0FF0C0F303CFF91
:10156000F300C060002010003FF0FF0C0F303CFF84
:10157000F300C060001C0800000000000000000034
:10158000000000000004C80000000000000000008F
:1015900000000000000528003FF300C3FC3FF0FFFF
:1015A000C300000000052B003FF300C3FC3FF0FF29
:1015B000C30000000004A500C00300CC03300CC031
:1015C0003000000000044200C00300CC03300CC017
:1015D0003000000000020C00C00300CC03300CC03F
:1015E000300000000001F000C00300CC03300CC04C
:1015F0003000000000004000C00300CC033FF0C0FA
:101600003000000000004000C003FFCC033FF0C0EA
:10161000300000000001C000C003FFCC033F00C049
:101620003000000000000000C00300CC033F00C0F9
:101630003000000000000000C00300CC0333C0C035
:101640003000000000000000C00300CC0333C0C025
:101650003000000075362577C00300CC0330F0C0A1
:101660003000000045517555C00300CC0330F0C078
:1016700030000000775356563FF300C3FC303CFF68
:10168000C3000000515575553FF300C3FC303CFFCB
:10169000C3000000775755770000000000000000ED
:1016A000C0F0FCFFFFFCF0C0FFFFC3FFFF03FFFF24
:1016B000FFFFC3FFFFC3FFFFFFFF030F1C38706076
:1016C000FFFFC0FFFFC3FFFFFFFFC0FFFF03FFFFE0
:1016D000C3C3C3FFFF030303FFFF03FFFF03FFFFBA
:1016E000FFFF03FFFFC0FFFF1838781818181818FD
:1016F000FFFFC3C3C3C3FFFF3B1511241FBECFEFC2
:10170000D8E0DEBFCDBF11E0A0E0B1E0E0E2F1E360
:1017100002C005900D92A633B107D9F725E0A6E3E4
:10172000B1E001C01D92A239B207E1F71BE0CDE79D
:10173000DBE004C02197FE010E945218CC37D1078C
:10174000C9F70E94F9130C948E180C9400006623BC
:10175000B4F14034A0F52223C9F0242F2695269514
:10176000269570E030E8239F600D711D1124FC0167
:10177000E60FF71F477081E090E002C0880F991FC5
:101780004A95E2F79081892B80830895242F26952E
:101790002695269570E030E8239F600D711D112479
:1017A000FC01E60FF71F477081E090E002C0880F50
:1017B000991F4A95E2F78095908189238083089547
:1017C0002F923F924F925F926F927F928F929F9251
:1017D000AF92BF92CF92DF92EF92FF920F931F933F
:1017E000CF93DF93E22FF0E037963F011AF437E012
:1017F000630E711C759467947594679475946794DF
:10180000442309F445C0202E422E5B016C01342E86
:101810003E0C812C912C772400E810E0442091F1BB
:10182000689CE001699CD00D789CD00D1124522C4D
:10183000F12C8F2D869586958695FE01E80FF11D7A
:10184000EA0DFB1D84919F2D9770980102C035957C
:1018500027959A95E2F7E82FF0E0E223F323EF2BA8
:1018600039F021E04E2D652DC6010E94A70B06C060
:1018700020E04E2D652DC6010E94A70BF3945394D2
:101880004F10D7CF8FEF881A980AE394E310C6CF92
:10189000DF91CF911F910F91FF90EF90DF90CF904C
:1018A000BF90AF909F908F907F906F905F904F9080
:1018B0003F902F900895FC019C5F1192E817F90763
:1018C000E1F70895CF93DF93EC019C5F0E945615DA
:1018D000CE010E945B0CDF91CF910895BC019C5F0B
:1018E0000E94C61508950895FC0160831092B90006
:1018F00088E48093B8000895DC0184EA8093BC00FA
:10190000ECEBF0E090819923ECF79091B900987F8F
:1019100011969C931197983011F09031B9F48C91F5
:101920008093BB0084E88093BC00ECEBF0E09081F6
:101930009923ECF79091B900987F11969C93983178
:1019400039F081E0903429F480E0089581E0089531
:1019500080E00895DC016093BB0084E88093BC00C4
:10196000ECEBF0E090819923ECF79091B900987F2F
:1019700011969C9381E0983209F480E0089584E9FF
:101980008093BC00ECEBF0E0808184FDFDCF0895F6
:10199000EF920F93CF93C82F0F2EFCE0EF2EF02D78
:1019A00003E028E048E068E976E186E391E00E9400
:1019B000E00B0F2EF7E1EF2EF02D28E048E068E96C
:1019C00076E186E391E00E94E00B0F2EF2E2EF2E2B
:1019D000F02D28E048E068E976E186E391E00E9496
:1019E000E00B0F2EFDE2EF2EF02D28E048E068E935
:1019F00076E186E391E00E94E00B8FEF8C0F81305F
:101A0000A1F028F08230F9F0833059F138C00F2E60
:101A1000FCE0EF2EF02D03E028E048E060EA76E1FC
:101A200086E391E00E94E00B36C00F2EF7E1EF2E27
:101A3000F02D03E028E048E060EA76E186E391E0FB
:101A40000E94E00B28C00F2EF2E2EF2EF02D03E0F3
:101A500028E048E060EA76E186E391E00E94E00B4E
:101A60001AC00F2EFDE2EF2EF02D03E028E048E033
:101A700060EA76E186E391E00E94E00B0CC0689496
:101A8000EE24E4F800E128E048E060EA76E186E34D
:101A900091E00E94E00B86E391E00E946E0CCF91F2
:101AA0000F91EF900895882319F0813039F00BC021
:101AB00080913A058F5F80933A0505C080913A0581
:101AC000815080933A0580913A05853020F081E07D
:101AD00080933A0505C0811103C084E080933A05E4
:101AE00080913A050E94C80C0895EF920F9386E307
:101AF00091E00E945B0C60912C0170912D01E12C12
:101B000000E020E840E486E391E00E94E00B81E001
:101B100080933A050E94C80C86E391E00E946E0C07
:101B20000F91EF90089581E080933C0528980E94E2
:101B3000750D08959F92AF92BF92CF92DF92EF9270
:101B4000FF920F931F93CF93DF9300D01F92CDB7D7
:101B5000DEB79C01F62E942E19821A821B82892BE5
:101B600051F140E00AE010E0C901B8010E941F18DD
:101B70009B01E1E0F0E0EC0FFD1FE40FF11D80831D
:101B80004F5F672B89F717C0D601EE916D01F0E02A
:101B9000EE0FFF1FE85EFE4F60817181E92C012F7F
:101BA00028E048E086E391E00E94E00B165FAC1469
:101BB000BD0451F709C06E01B4E0CB0ED11CCE01BB
:101BC00001965C011F2DE0CF0F900F900F90DF91D9
:101BD000CF911F910F91FF90EF90DF90CF90BF902A
:101BE000AF909F900895813061F028F0823079F0B5
:101BF000833099F017C080910001815080930001DB
:101C000011C0809100018F5F809300010BC0809113
:101C1000020181508093020105C0809102018F5F13
:101C20008093020180910201853018F084E0809356
:101C300002018091000146E166E290E00E949A0D67
:101C4000E0910201F0E0ED5FFE4F808145E267E444
:101C500090E00E949A0D86E391E00E946E0C089538
:101C600090910B019930D9F480933F054AE162E4E9
:101C700090E00E949A0D80913F0590E0FC01EE0FEC
:101C8000FF1FEE0FFF1F8E0F9F1FFC01EA59FA4F37
:101C9000848149E267E390E00E949A0D17C088238F
:101CA00019F0813039F00BC0E1E6F5E084818F5FF7
:101CB000848305C0E1E6F5E08481815084838091CE
:101CC000650549E267E390E00E949A0D86E391E0A2
:101CD0000E946E0C0895CF93DF9390910B01993081
:101CE00061F480933F054AE162E490E00E949A0D1E
:101CF00086E391E00E946E0C56C090E0883091051A
:101D0000A0F5FC01EC5CFF4F0C945218E1E6F5E005
:101D100083818150838329C0E1E6F5E083818F5F71
:101D2000838323C0E1E6F5E08281815082831DC078
:101D3000E1E6F5E082818F5F828317C0E1E6F5E09E
:101D400081818150818311C0E1E6F5E081818F5F5F
:101D500081830BC0E1E6F5E080818150808305C07E
:101D6000E1E6F5E080818F5F8083C1E6D5E08B817D
:101D70004EE262E090E00E949A0D8A814EE262E2B9
:101D800090E00E949A0D89814EE262E490E00E9408
:101D90009A0D88814EE262E690E00E949A0D86E3F9
:101DA00091E00E946E0CDF91CF910895CF93DF9365
:101DB000C82FD0E043E16BE4CE010E949A0DCE0122
:101DC000880F991F880F991FC80FD91FCA59DA4F5A
:101DD0008B814EE262E090E00E949A0D8A814EE291
:101DE00062E290E00E949A0D89814EE262E490E006
:101DF0000E949A0D88814EE262E690E00E949A0D60
:101E000086E391E00E946E0CDF91CF910895EF92EE
:101E10000F9386E391E00E945B0CE12C00E020E848
:101E200042E268E774E186E391E00E94E00B809172
:101E30003F050E94D60E86E391E00E946E0C0F9142
:101E4000EF90089580910B018930B1F4E0913F0546
:101E5000E0930B01F0E0CF01880F991F880F991FC5
:101E6000E80FF91FEA59FA4F85E0A1E6B5E00190C5
:101E70000D928A95E1F708950E94070F10923C0594
:101E800010923B0589E080930B01A0913F05B0E0E3
:101E9000CD01880F991F880F991FA80FB91FAA5944
:101EA000BA4F85E0E1E6F5E001900D928A95E1F701
:101EB0000895CF93DF9380910B018930A1F5809134
:101EC0003F0580930B0190E0FC01EE0FFF1FEE0F2A
:101ED000FF1FE80FF91FEA59FA4F85E0A1E6B5E0C8
:101EE00001900D928A95E1F7C1E6D5E08B814EE233
:101EF00062E090E00E949A0D8A814EE262E290E0F8
:101F00000E949A0D89814EE262E490E00E949A0D4F
:101F100088814EE262E690E00E949A0D86E391E0AD
:101F20000E946E0C1CC00E94070F89E080930B0179
:101F300010923C0510923B05A0913F05B0E0CD0109
:101F4000880F991F880F991FA80FB91FAA59BA4F58
:101F500085E0E1E6F5E001900D928A95E1F7DF91E9
:101F6000CF910895EF920F9386E391E00E945B0C6E
:101F7000E0913B05F0E0EE0FFF1FE45DFE4F608156
:101F80007181E12C00E020E840E486E391E00E94CA
:101F9000E00B8091080146E166E290E00E949A0D14
:101FA000E0910201F0E0ED5FFE4F808145E267E4E1
:101FB00090E00E949A0D86E391E00E946E0C0F91D2
:101FC000EF900895EF920F9386E391E00E945B0CEF
:101FD000E0913B05F0E0EE0FFF1FE45DFE4F6081F6
:101FE0007181E12C00E020E840E486E391E00E946A
:101FF000E00B80913F054AE162E490E00E949A0D77
:1020000080913F0590E0FC01EE0FFF1FEE0FFF1FD8
:102010008E0F9F1FFC01EA59FA4F848149E267E362
:1020200090E00E949A0D86E391E00E946E0C0F9161
:10203000EF900895EF920F9386E391E00E945B0C7E
:10204000E0913B05F0E0EE0FFF1FE45DFE4F608185
:102050007181E12C00E020E840E486E391E00E94F9
:10206000E00B49E269E580E190E00E949A0D86E389
:1020700091E00E946E0C0F91EF900895EF920F93F4
:1020800086E391E00E945B0CE0913B05F0E0EE0FEF
:10209000FF1FE45DFE4F60817181E12C00E020E8CC
:1020A00040E486E391E00E94E00B86E391E00E9429
:1020B0006E0C0F91EF90089580913A059FEF980F65
:1020C000943010F480933B05823061F018F4813035
:1020D00031F00895833049F0843051F008950E9422
:1020E000B20F08950E94E20F08950E941A100895F9
:1020F0000E943E10089510923B0580910801809344
:102100000001809101018093020189E080930B011D
:1021100010924005089516BC8FE787BD83E0809339
:102120006E0084B5816084BD85B5826085BD78947C
:1021300008951F920F920FB60F9211240F900FBEA9
:102140000F901F90189526B130E0082E02C03595EB
:1021500027950A94E2F720FD13C0EFE3FCE93197DD
:10216000F1F700C0000026B130E0A90102C055958A
:1021700047958A95E2F7CA0151E085278170089555
:1021800080E008955F9A8FE99FE00197F1F700C022
:10219000000089B19BB11BB85E9AEFE9FFE031976F
:1021A000F1F700C0000099B12BB11BB89C73969554
:1021B00096958C73880F880F892B089582E00E9472
:1021C000A310811105C080910A018E7F80930A01BE
:1021D00083E00E94A310811105C080910A018D7FC8
:1021E00080930A010E94C210811105C080910A01EA
:1021F0008B7F80930A011092390508958F929F92E8
:10220000AF92BF92CF92DF92EF92FF927C01109239
:102210008E0510928F051092900510929105072E51
:10222000000C880B990B0E9426179B01AC0160E003
:1022300070E080E89FE30E94831620E030E040E8F1
:1022400050E40E94B2174B015C019701FF0C440B54
:10225000550B6EE177E983E090E00E943318CA01E4
:10226000B9010E9426179B01AC01C501B4010E946F
:10227000B2170E94F5166B017C01609314017093F4
:102280001501809316019093170180913F0590E00E
:10229000FC01EE0FFF1FEE0FFF1F8E0F9F1FFC01B3
:1022A000EA59FA4F648170E080E090E00E942617BE
:1022B0004B015C01C701B6010E94241720E030E009
:1022C00048EC52E40E9483169B01AC01C501B401A5
:1022D0000E94B2170E94F5166093100170931101CD
:1022E0008093120190931301FF90EF90DF90CF90B5
:1022F000BF90AF909F908F9008950E94070F80919C
:1023000000018093080190910201E92FF0E0ED5F58
:10231000FE4F6081609309019093010170E090E0AD
:102320000E94FE1010923C0510923B0508958FEF1D
:1023300084B983E58CBD08958EBD0DB407FEFDCF35
:102340008EB5089540980E949C11409A08951F935D
:10235000CF93DF93142F252F30E07695762F6627C5
:1023600077956795622B732B95B1C1E0D0E002C0E1
:10237000CC0FDD1F8A95E2F78C2F8095982395B9B5
:10238000862F80630E949C11812F0E949C1185B131
:10239000C82BC5B9DF91CF911F910895E6E6F5E00E
:1023A00084E232E394E0980F8083918327E0280F42
:1023B0002283845F838334833596892F943491F705
:1023C000E1E6F5E080E4808384E4818387E482832E
:1023D0008CE4838382E38483A1E5B5E0E1E4F5E066
:1023E00020E030E0C90187709078992324F40197A8
:1023F000886F9F6F01968D9381932F5F3F4F2031A0
:10240000310581F70895CF93DF9300D000D01F925C
:10241000CDB7DEB75A836B837C83642F70E080E096
:1024200090E00E94241720E030E040EC51E40E944C
:1024300016162BEA3AEA4AEA5DE30E94B2172091A7
:102440000C0130910D0140910E0150910F010E943D
:10245000831620E030E040E855E40E94B2170E9465
:10246000F516AB0160E070E081E090E00E94A711FA
:102470006A8170E080E090E00E94241720E030E064
:1024800040EC51E40E9416162BEA3AEA4AEA5DE370
:102490000E94B21720910C0130910D0140910E0164
:1024A00050910F010E94831620E030E040E855E48F
:1024B0000E94B2170E94F516AB0161E070E081E066
:1024C00090E00E94A7116B8170E080E090E00E9494
:1024D000241720E030E040EC51E40E9416162BEA6D
:1024E0003AEA4AEA5DE30E94B21720910C0130916A
:1024F0000D0140910E0150910F010E94831620E0C2
:1025000030E040E855E40E94B2170E94F516AB0196
:1025100060E070E082E090E00E94A7116C8170E0C2
:1025200080E090E00E94241720E030E040EC51E48D
:102530000E9416162BEA3AEA4AEA5DE30E94B217B5
:1025400020910C0130910D0140910E0150910F012D
:102550000E94831620E030E040E855E40E94B21764
:102560000E94F516AB0161E070E082E090E00E940D
:10257000A7110F900F900F900F900F90DF91CF91B8
:102580000895CF93C82F81E00C2E01C0880F0A94C4
:10259000EAF70E94A211C0933F058C2F0E94D60E2D
:1025A000289AE0913F05F0E0CF01880F991F880F2E
:1025B000991FE80FF91FEA59FA4F40815181628152
:1025C000738184810E940312CF9108951F920F920C
:1025D0000FB60F921124CF92DF92EF92FF920F93DA
:1025E0001F932F933F934F935F936F937F938F939B
:1025F0009F93AF93BF93CF93EF93FF938091380551
:10260000882309F4A7C080913C058111A3C0809163
:102610008E0590918F05A0919005B091910501963E
:10262000A11DB11D80938E0590938F05A0939005F9
:10263000B0939105409110015091110160911201E8
:102640007091130184179507A607B70709F4289816
:1026500060918E0570918F05809190059091910504
:10266000009114011091150120911601309117016C
:10267000601771078207930709F06CC010928E05EE
:1026800010928F05109290051092910520913D05B2
:102690002F5F203119F020933D0502C010923D05B7
:1026A000E0913D05F0E0EF5AFA4FC081C0933E053E
:1026B0000E94241720E030E048EC52E40E94831688
:1026C0006B017C018C2F90E0FC01EE0FFF1FEE0FE1
:1026D000FF1F8E0F9F1FFC01EA59FA4F648170E0C3
:1026E00080E090E00E9426179B01AC01C701B60173
:1026F0000E94B2170E94F5166093100170931101A9
:10270000809312019093130180913905811122C0A9
:10271000289A80913E050E94D60E80913E0590E059
:10272000FC01EE0FFF1FEE0FFF1FE80FF91FEA5924
:10273000FA4F408151816281738184810E9403122A
:1027400090913D05977081E001C0880F9A95EAF756
:102750000E94A211FF91EF91CF91BF91AF919F91F4
:102760008F917F916F915F914F913F912F911F9129
:102770000F91FF90EF90DF90CF900F900FBE0F90D2
:102780001F901895E1E4F5E0A1E5B5E021E535E01D
:1027900081918D93E217F307D9F708958091400551
:1027A000813150F00E94C213109240050E94070F21
:1027B00010923C0510923B05089580933F0590913F
:1027C00040059F5F90934005E92FF0E0EF5BFA4FE3
:1027D0008083913110F00E94CE138091400549E230
:1027E00068E390E00E949A0D86E391E00E946E0CEF
:1027F00008958AB1806C8AB98FEF87B987B187B99C
:1028000088B18C6088B90E94CE1180915105809367
:102810003F0582E0809309018091080162E070E049
:1028200090E00E94FE100E948B100E9497110E945F
:10283000070F40916605509167056091680570919A
:10284000690580916A050E9403122FEF80E792E0EC
:10285000215080409040E1F700C00000FF24F39435
:1028600001E515E0D1E00E94C21080933905809106
:102870000A0180FD6AC082E00E94A310882309F447
:1028800064C080913C0581115AC080910A01816029
:1028900080930A01809138058F2580933805289A06
:1028A00010928E0510928F0510929005109291054E
:1028B000F801808180933D050E94D60E80913D05F0
:1028C0008770FD2F01C0FF0F8A95EAF78F2F0E94B6
:1028D000A2116091140170911501809116019091DF
:1028E00017010E94241720E030E048EC52E40E94D7
:1028F00083164B015C0180913D0590E0FC01EE0FD9
:10290000FF1FEE0FFF1F8E0F9F1FFC01EA59FA4FAA
:10291000648170E080E090E00E9426179B01AC018A
:10292000C501B4010E94B2170E94F5166093100110
:1029300070931101809312019093130106C00E94BD
:10294000070F0E947B1010923C0580910A0181FDC7
:1029500030C083E00E94A310882309F487C08091CF
:102960000A01826080930A0180913C05811103C0B5
:102970000E94930D7BC080913B05823089F028F442
:10298000882341F0813049F014C0833061F08430F5
:1029900069F00FC00E945C1069C00E947D1166C082
:1029A0000E94220F63C00E94CE1360C00E94590F84
:1029B0005DC080913905882309F44DC0482F50E04F
:1029C00080FD0DC081E090E0C82F9A01082E02C062
:1029D000359527950A94E2F720FF37C001C0C0E083
:1029E00080913C05811103C08C2F0E94C1128091FF
:1029F0000A0182FD38C090913C059130A1F58460B8
:102A000080930A0180913B05823099F028F4882355
:102A100041F0813051F027C0833079F0843089F063
:102A200022C08C2F0E94530D1EC08C2F0E94F30DCC
:102A30001AC08C2F0E94300E16C08C2F0E94DD13FE
:102A400012C08C2F0E946B0E0EC00196883091052B
:102A500009F0BACF08C080913805811101C02898CB
:102A600080E00E94A2110E94DE10FDCE8091390507
:102A70008111A4CFF0CF86E391E00E94620C08950B
:102A80001F93CF93DF93EC01162F0E947C0C60E024
:102A9000CE010E94AA0C612FCE010E94AA0CCE0189
:102AA0000E94BF0CDF91CF911F910895CF93DF93C8
:102AB000EC010E94730C68E7CE010E94740C6EEA70
:102AC000CE010E94401565EDCE010E94401560E8E0
:102AD000CE010E94401568EACE010E9440156FE3C6
:102AE000CE010E94401563EDCE010E94401560E0CA
:102AF000CE010E94401560E4CE010E9440156DE8B1
:102B0000CE010E94401564E1CE010E94401560E2B2
:102B1000CE010E94401560E0CE010E94401561EA9E
:102B2000CE010E94401568ECCE010E9440156AED6E
:102B3000CE010E94401562E1CE010E94401561E87D
:102B4000CE010E9440156FECCE010E94401569ED48
:102B5000CE010E94401561EFCE010E9440156BED41
:102B6000CE010E94401560E4CE010E94401564EA47
:102B7000CE010E94401566EACE010E9440156FEA20
:102B8000CE010E944015DF91CF910895CF92DF9240
:102B9000EF92FF920F931F93CF93DF93082F192F7C
:102BA0007B0161E20E94401560E0802F912F0E941E
:102BB00040156FE7802F912F0E94401562E2802F11
:102BC000912F0E94401560E0802F912F0E944015A8
:102BD00067E0802F912F0E944015E7018CEFF81AD3
:102BE000802F912F0E947C0C60E4802F912F0E94F7
:102BF000AA0C6E0180E1C80ED11C6991802F912F23
:102C00000E94AA0CCC15DD05C1F7802F912F0E94E0
:102C1000BF0CE601EC14FD0419F7DF91CF911F9171
:102C20000F91FF90EF90DF90CF9008955058BB2701
:102C3000AA270E942E160C9478170E946A1738F063
:102C40000E94711720F039F49F3F19F426F40C9478
:102C500067170EF4E095E7FB0C946117E92F0E94CB
:102C6000891758F3BA17620773078407950720F08E
:102C700079F4A6F50C94AB170EF4E0950B2EBA2F51
:102C8000A02D0B01B90190010C01CA01A001112472
:102C9000FF27591B99F0593F50F4503E68F11A161E
:102CA000F040A22F232F342F4427585FF3CF4695AF
:102CB00037952795A795F0405395C9F77EF41F16D1
:102CC000BA0B620B730B840BBAF09150A1F0FF0F9B
:102CD000BB1F661F771F881FC2F70EC0BA0F621F87
:102CE000731F841F48F4879577956795B795F79577
:102CF0009E3F08F0B0CF9395880F08F09927EE0F0C
:102D00009795879508950E9497160C9478170E94BE
:102D1000711758F00E946A1740F029F45F3F29F0BC
:102D20000C94611751110C94AC170C9467170E9406
:102D3000891768F39923B1F3552391F3951B550B2C
:102D4000BB27AA2762177307840738F09F5F5F4F7E
:102D5000220F331F441FAA1FA9F335D00E2E3AF0BD
:102D6000E0E832D091505040E695001CCAF72BD0D5
:102D7000FE2F29D0660F771F881FBB1F2617370726
:102D80004807AB07B0E809F0BB0B802DBF01FF2758
:102D900093585F4F3AF09E3F510578F00C946117BD
:102DA0000C94AC175F3FE4F3983ED4F38695779587
:102DB0006795B795F7959F5FC9F7880F911D969511
:102DC000879597F90895E1E0660F771F881FBB1F6D
:102DD000621773078407BA0720F0621B730B840B1A
:102DE000BA0BEE1F88F7E09508950E94911788F0BE
:102DF0009F5798F0B92F9927B751B0F0E1F0660FBF
:102E0000771F881F991F1AF0BA95C9F714C0B130FF
:102E100091F00E94AB17B1E008950C94AB17672FA7
:102E2000782F8827B85F39F0B93FCCF3869577952E
:102E30006795B395D9F73EF4909580957095619517
:102E40007F4F8F4F9F4F0895E89409C097FB3EF442
:102E500090958095709561957F4F8F4F9F4F9923E7
:102E6000A9F0F92F96E9BB279395F6958795779565
:102E70006795B795F111F8CFFAF4BB0F11F460FF25
:102E80001BC06F5F7F4F8F4F9F4F16C0882311F07D
:102E900096E911C0772321F09EE8872F762F05C091
:102EA000662371F096E8862F70E060E02AF09A952C
:102EB000660F771F881FDAF7880F9695879597F921
:102EC000089597F99F6780E870E060E008959FEFAC
:102ED00080EC089500240A941616170618060906B1
:102EE000089500240A941216130614060506089580
:102EF000092E0394000C11F4882352F0BB0F40F408
:102F0000BF2B11F460FF04C06F5F7F4F8F4F9F4F47
:102F1000089557FD9058440F551F59F05F3F71F0C9
:102F20004795880F97FB991F61F09F3F79F0879530
:102F30000895121613061406551FF2CF4695F1DFB9
:102F400008C0161617061806991FF1CF8695710549
:102F5000610508940895E894BB2766277727CB017D
:102F600097F908950E94C5170C9478170E946A1764
:102F700038F00E94711720F0952311F00C9461171E
:102F80000C94671711240C94AC170E94891770F3E6
:102F9000959FC1F3950F50E0551F629FF001729FFE
:102FA000BB27F00DB11D639FAA27F00DB11DAA1F0D
:102FB000649F6627B00DA11D661F829F2227B00D5A
:102FC000A11D621F739FB00DA11D621F839FA00DE5
:102FD000611D221F749F3327A00D611D231F849F35
:102FE000600D211D822F762F6A2F11249F5750408C
:102FF0009AF0F1F088234AF0EE0FFF1FBB1F661F07
:10300000771F881F91505040A9F79E3F510580F0CF
:103010000C9461170C94AC175F3FE4F3983ED4F323
:10302000869577956795B795F795E7959F5FC1F773
:10303000FE2B880F911D9695879597F9089597FB1C
:10304000072E16F4009407D077FD09D00E94581877
:1030500007FC05D03EF4909581959F4F089570959B
:1030600061957F4F0895052E97FB1EF400940E94F2
:103070004A1857FD07D00E946C1807FC03D04EF485
:103080000C944A1850954095309521953F4F4F4FDD
:103090005F4F089590958095709561957F4F8F4F04
:1030A0009F4F0895EE0FFF1F0590F491E02D0994B6
:1030B000AA1BBB1B51E107C0AA1FBB1FA617B7075E
:1030C00010F0A61BB70B881F991F5A95A9F780957A
:1030D0009095BC01CD010895A1E21A2EAA1BBB1B3D
:1030E000FD010DC0AA1FBB1FEE1FFF1FA217B307D4
:1030F000E407F50720F0A21BB30BE40BF50B661FEA
:10310000771F881F991F1A9469F7609570958095AD
:1031100090959B01AC01BD01CF010895F894FFCFBC
:1031200078010101020406087801FF090000A040AF
:10313000A8070000A8070000F016E816E016D81649
:10314000D016C816C016B816B016A8167810780C87
:0631500078047808780005
:00000001FF
